:0E0000000128F82F4A2F482F4E2F4C2F502F3B
:020A00000A34B6
:100BC00021009D18E02D1C08080000304926003047
:100BD000FC2508002000911CEA2D911008006400FB
:100BE00080010131890BF02D003422000C1CFA2DFC
:100BF0000130080000300800F1007108F0007008B2
:100C00002000AE00080020001C08FC3902389C00BF
:100C10007D309B0091101C15080021000C14FE3043
:100C2000F000700823008C0527000C1424000C141D
:100C30000800210019088739703899001908FC3913
:100C4000023899009A190800222E21000C16230060
:100C50000C1621000C1523000C1521001E088F39DD
:100C600020389E001D14080020002F0803193C2E78
:100C7000F430AA000130AB002A082B040319462ED9
:100C80000130AA020030AB3B752608000130FC257C
:100C90000800F4007408F0007008F3007408F00015
:100CA000F1017008F100F00170082000A80071083F
:100CB000A9003B009401730893009F170800F525D5
:100CC000003A0319642EE525003020002902213066
:100CD00003192802031C732E2030A8020030A93B00
:100CE000290849260800E52508000330ED26E025FF
:100CF000FA007A08FB000230ED263030FA007A085C
:100D0000F0007B08B227E025FA007A08FC003430B6
:100D1000FA007A08F0007C08B2270800F400740892
:100D200086008701403FF000413FF100423FF20062
:100D3000433FF30000308400853085000008890AB5
:100D4000A62E0310F30CF20CF10CF00CFF3E031D69
:100D5000A12E70080800200027082604250424047A
:100D60000319C32E0130F5000030F6000030F70003
:100D70000030F8007508A4027608A53B7708A63B6A
:100D80007808A73BC52E0430FC25F525003A031949
:100D90000800E5250800DF30F000700821008C0510
:100DA000DF30F000700823008C0522001D14F101D3
:100DB000F10A3B00910192019301940100309600E9
:100DC000FF3095007108F000F00E1E0870068F3994
:100DD00070069E009B171B170800F1007108F000B9
:100DE000F00DF00D21001D087006833970069D007E
:100DF00000000000000000000000000000000000F3
:100E000000000000000000000000000000000000E2
:100E1000000000000000000021009D1408002000D8
:100E20002F080319172FF430AC000130AD002C0847
:100E30002D040319392F0130AC020030AD3B2708D7
:100E40002604250424040319362F0130F200003053
:100E5000F3000030F4000030F5007208A4027308BB
:100E6000A53B7408A63B7508A73B08000430FC2589
:100E700008000330FC25080019262526CB260D2660
:100E80000326E52520002E08FD007D08C200522F14
:100E900073275D2F34265D2FAB265D2F0F275D2F27
:100EA0005F265D2F20002E08840005300402031801
:100EB0005D2F8031023004078200200042082E0698
:100EC0000319642F0130652F0030FD007D08AF004D
:100ED000EA2501302000A0070030A13D0030A23DEE
:100EE0000030A33D422FF5252000B8003808C1008E
:100EF00041080319B02F30308E262000B800380882
:100F0000C00034308E262000B800B901BA01BB0100
:100F10003B08BF003A08BE003908BD003808BC00D5
:100F20003C08B8003D08B9003E08BA003F08BB00C5
:100F30000830B835B90DBA0DBB0D890B992F883023
:100F40003807A4001330393DA50000303A3DA60013
:100F500000303B3DA700400849260230FC25080030
:100F600075260800F900700886008701403FF100EF
:100F7000413FF200423FF300433FF4000030840061
:100F8000853085000008890ACA2F0310F40CF30C81
:100F9000F20CF10CFF3E031DC52F7408F800730816
:100FA000F7007208F6007108F5007908F100F20107
:100FB000F301F4017008860087017108810741314F
:100FC0007208813D41317308813D41317408813D92
:100FD0007008860087017508810241317608813BDF
:100FE00041317708813B41317808813B7D310800F0
:100FF00020308400003085001830EF2520003C2F81
:020000040001F9
:04000E00E4FFFFFE0E
:00000001FF
